:020000040000FA
:100000000301831606309F000F3085000030860004
:100010000030870000308800831285018601870147
:10002000880105181D208518272005196E208519BF
:10003000B520051A222100001128003086008F21EA
:10004000003087008F21003088008F2108000130A8
:10005000860001308700013088008F210330860040
:1000600003308700033088008F2106308600063079
:100070008700063088008F210C3086000C30870006
:100080000C3088008F211830860018308700183017
:1000900088008F2130308600303087003030880073
:1000A0008F216030860060308700603088008F21AB
:1000B000C0308600C0308700C03088008F2180307B
:1000C000860080308700803088008F2100308600D5
:1000D00000308700003088008F21080080308600C3
:1000E00080308700803088008F21C0308600C0308B
:1000F0008700C03088008F21603086006030870024
:10010000603088008F2130308600303087003030FA
:1001100088008F211830860018308700183088003A
:100120008F210C3086000C3087000C3088008F2126
:100130000630860006308700063088008F210330A5
:10014000860003308700033088008F21013086004D
:1001500001308700013088008F2100308600003098
:100160008700003088008F210800803086008F21B2
:10017000403086008F21203086008F21103086008D
:100180008F21083086008F21043086008F210230B5
:1001900086008F21013086008F21003086008F215C
:1001A000013087008F21023087008F2104308700C3
:1001B0008F21083087008F21103087008F21203059
:1001C00087008F21403087008F21803087008F216A
:1001D000003087008F21803088008F2140308800D8
:1001E0008F21203088008F21103088008F21083027
:1001F00088008F21043088008F21023088008F21F1
:10020000013088008F21003088008F210130870065
:100210008F21023087008F21043087008F21083022
:1002200087008F21103087008F21203087008F2199
:10023000403087008F21803087008F210030870079
:100240008F210800803088008F21403088008F2166
:10025000203088008F21103088008F2108308800DE
:100260008F21043088008F21023088008F210130D7
:1002700088008F21003088008F21013087008F2176
:10028000023087008F21043087008F2108308700DB
:100290008F21103087008F21203087008F21403040
:1002A00087008F21803087008F21003087008F21C9
:1002B000803086008F21403086008F2120308600DC
:1002C0008F21103086008F21083086008F21043066
:1002D00086008F21023086008F21013086008F2119
:1002E000003086008F21013087008F210230870087
:1002F0008F21043087008F21083087008F21103034
:1003000087008F21203087008F21403087008F2188
:10031000803087008F21003087008F210800FF3058
:0E032000A000A100A00B9229A10B92290800B9
:02032E00003499
:02033000003497
:00000001FF
